:1000000000000420D1020000F9020000D511000018
:10001000FD020000FF0200000103000000000000DC
:1000200000000000000000000000000003030000CA
:1000300005030000000000000703000009030000A2
:10004000051F00000B030000651F00000B030000EC
:100050000B030000293300000B0300000B0300001A
:100060000B0300000B0300000B0300000B03000058
:100070000B0300000B0300000B0300000B03000048
:100080000B0300000B0300000B0300000B03000038
:100090000B0300000B0300000B0300000B03000028
:1000A0000B0300000B0300000B0300005D2F00009A
:1000B0000B0300000B030000000000000000000024
:1000C0000B0300000B0300000B0300000B030000F8
:1000D0000B0300000B0300000B0300000B030000E8
:1000E0000B0300000B0300000B03000000000000E6
:1000F000000000000B030000000000000B030000E4
:1001000000000000000000000000000000000000EF
:1001100000000000000000000000000000000000DF
:1001200000000000000000000000000000000000CF
:1001300000000000000000000000000000000000BF
:1001400000000000000000000000000000000000AF
:10015000000000000000000000000000000000009F
:10016000000000000000000000000000000000008F
:10017000000000000000000000000000000000007F
:10018000000000000000000000000000000000006F
:10019000000000000000000000000000000000005F
:1001A000000000000000000000000000000000004F
:1001B000000000000000000000000000000000003F
:1001C000000000000000000000000000000000002F
:1001D000000000000000000000000000000000001F
:1001E000000000000000000000000000000000000F
:1001F00000000000000000000000000000000000FF
:1002000010B5054C237833B9044B13B10448AFF350
:1002100000800123237010BD940000200000000026
:10022000CC470000084B10B51BB108480849AFF394
:1002300000800848036803B910BD074B002BFBD0B2
:10024000BDE81040184700BF00000000CC47000088
:10025000980000209000002000000000154B002BAB
:1002600008BF134B9D46A3F5803A00218B460F46ED
:100270001348144A121A03F0A6FD0F4B002B00D0AE
:1002800098470E4B002B00D0984700200021040017
:100290000D000D48002802D00C48AFF3008003F099
:1002A00061FD2000290002F0E3FB03F047FD00BFE1
:1002B0000000080000000420000000000000000012
:1002C00094000020B00800200000000000000000A2
:1002D0000649074A074B9B1A03DD043BC858D05018
:1002E000FBDC02F067FCFFF7B9FF000034480000B8
:1002F0000000002094000020FEE7FEE7FEE7FEE796
:10030000FEE7FEE7FEE7FEE7FEE7FEE7F0B595B0A5
:10031000002415460F4608461E4601F013FC3846D9
:10032000234605A9082208951A9D0D9509960A9459
:100330008DF82C400C9401F05FFC9DF81430079D63
:10034000BDF81800BDF81A108DF8114003F0030233
:10035000012A0295ADF80C00ADF80E1028D0022A43
:1003600004D0384601F0F2FB15B0F0BDBDF81650D0
:10037000C3F3C2038DF81030C5F389150826082D84
:100380002C4628BF08243346224638460EA901F0E1
:1003900033FC2D1B21460EA802AA08AB264400F010
:1003A000C5FD002DEBD1384601F0D0FB15B0F0BDF6
:1003B000BDF81460059DC6F38316C3F3C204B200F2
:1003C0000EA9384608238DF81040C5F3952501F095
:1003D00013FC08AB0093284632460EA902AB00F08E
:1003E000FFFCBEE7014B01221A707047B0000020ED
:1003F000704700BF00B583B0044B0093044A40230C
:10040000FFF784FF03B05DF804FB00BF1504000094
:10041000B400002038B50E480E4D03780E4CEB5C4E
:10042000002525706BB90C30D2B202F025F808B166
:1004300000F076FE094B1B7813B12378002BFCD01B
:1004400038BD0430D2B202F0B5FA0028F0D1F1E79D
:1004500000000020AC070020B0000020B100002008
:1004600030B51648164A0378D35C89B00BBB0C3004
:1004700001F084FF134D0FCD6C460FC495E80F00BB
:10048000062584E80F004FF0FF334FF0EB740B4864
:10049000009569460022019302930393069401F0AC
:1004A000A3FC08B100F03CFE074B00221A7009B013
:1004B00030BD043002F0FEF9DCE700BF0000002090
:1004C000AC070020043E0000B100002030B5104D04
:1004D0000FCD89B06C460FC495E80F00062584E85F
:1004E0000F004FF0FF334FF0EB740A480A4A0095B3
:1004F0006946019302930393069401F075FC08B1D9
:1005000000F00EFE054B01221A7009B030BD00BF8D
:10051000043E000000000020E5030000B1000020C0
:1005200008B5FFF7D3FF0448042100F011FC034B8A
:1005300001225A7108BD00BF0848000014000020C5
:10054000F0B5304C85B004F5836000F01FFF04F275
:10055000144000F01BFF6268A76807EA0206B31C9C
:1005600004EB83010D1D087910F0040017D02B78DF
:1005700003F00303012B37D0022B0DD16B88C3F39B
:10058000891302331A4402EA0706B31C04EB8303FF
:100590001D1D187900F004000028E8D1B31C04EBFD
:1005A0008303511C58680190394004EB810300F02B
:1005B0000300DB680293012802F102041AD002282A
:1005C00016D1BDF80630BDF80A50C3F389130333C2
:1005D00004EB93040B4E06F2144000F0E5FE00B16C
:1005E0007460284605B0F0BD2B88C3F38313C8E7B9
:1005F0000025EFE7BDF80430BDF80A50C3F38313BC
:100600001C44E7E7F40000200B4B0C4810B5002217
:10061000FF21C3F8182499601A605A60C3F81424A3
:1006200083F8202401F046FA044610B9044801F08A
:1006300017FB204610BD00BFF40000201848000042
:100640005C3E000021B9114B03EBC000006870470D
:1006500030B40F4A0D4C121BD2080CD00D4D2B8814
:10066000834210D0002303E035F82310814205D0E7
:1006700001339342F8D1002030BC704704EBC30033
:10068000006830BC70472046FAE700BFD047000042
:100690000848000094000020094B013903EBC0001A
:1006A00003290BD8DFE801F0020806040220704796
:1006B00040797047007970470420704700207047E8
:1006C000D04700002DE9F04F9B4D6A682B689A4295
:1006D00085B000F0D2800023C5F81834BFF34F8FE7
:1006E0006A68AC6804EA0203023305EB83010E1D5D
:1006F000097948071FD52F68AE46337803F0030306
:10070000012B49D0022B04D17388C3F38913023320
:100710001A4402EA04030233D5F81804DFF818C2B9
:100720000EEB83010E1D002840F0AB80974239D9B3
:1007300009794907E1D405EB8303511C58680190FE
:10074000214005EB810300F00300DB6802930228DF
:1007500002F10208784F2AD0012800F09680D5F8DF
:1007600010443CB1236820469B689847E3681C68A6
:10077000002CF7D1714B72487249181AC008000456
:1007800040F0020000F0E2F895E80900181A18BFDE
:10079000012005B0BDE8F08F3388C3F38313023323
:1007A0001A44B6E7CCF8047005B0BDE8F08FBDF888
:1007B00006306548C3F38919B9F1500FCA46A8BF7E
:1007C0004FF0500A6AF38F130AF10801ADF80630B2
:1007D00001F072F906460028C1D024EA080B0BF19B
:1007E000010B01F0AFF94FEA8B0B304601A908224B
:1007F000002301F0CBF9DA4540F28880BBF1000F0D
:1008000000F08F8008EA040107EB8101CBEB0A04BA
:100810000C3130465A460823E4B201F0B7F93046AD
:10082000224607F10C010BF1080301F0AFF909F1C1
:10083000030708EB9707D5F81834D5F81044002BB8
:1008400060D15CB1E3685A79204631461AB1236819
:100850001B689847E3681C68002CF3D1304601F010
:1008600075F9002000F0A4FCD5F81834324A03B919
:100870005760002000F0A4FC86E7002005B0BDE82A
:10088000F08F02EA0403023355E7BDF804302E4826
:10089000C3F38312062A28BF0622911C62F3891330
:1008A0008900ADF8043001F007F9064600283FF44E
:1008B00056AF01F047F90023304601A9082201F0A4
:1008C00065F9BDF8043013F4707F32D04FF0000AA0
:1008D0004FF0080908EA040105EB81014B460C3191
:1008E0003046042201F052F9BDF804300AF1010A41
:1008F000C3F3831308F10107534509F10409B8460E
:10090000E8D898E7304601F021F93DE708EA04010C
:1009100007EB81010C3152463046082301F036F9CD
:1009200085E707F10C0152463046082301F02EF905
:100930007DE747467FE700BFF4000020F047000056
:10094000D0470000443E0000184800002DE9F8435D
:10095000DFF8D480064600200F46D8F8084000F0A3
:1009600027FCD8F80810D8F80430D8F800500B4409
:1009700001335B1B012B52D801212A4800F0EAFC0D
:10098000FFF7DEFD0146274800F0E4FC98E80C0084
:10099000D8F808100B4401339B1A012BECD90A40FC
:1009A0004FF0010908EB820249F004036FF3891349
:1009B000D360D8F8003000200233C8F8003000F0CF
:1009C000FFFB1848002100F0B9FC80F3100005EB94
:1009D000090323402C40320C08EB8303023408EB5C
:1009E000840442EA0040D860237966F3C50323718A
:1009F000A3886FF38913A380626867F39F2213466D
:100A000069F301036FF382036260237198F8203465
:100A10001BB1FFF757FE0028FBD1BDE8F8832A463B
:100A2000BDE700BF10050020F40000202DE9F047CD
:100A3000DFF8E090064600200F469046D9F80840BF
:100A400000F0B6FBD9F80810D9F80430D9F80050F6
:100A50000B4401335B1B022B58D801212C4800F0BA
:100A600079FCFFF76DFD0146294800F073FC99E819
:100A70000C00D9F808100B4401339B1A022BECD957
:100A80004FF0010A0A4009EB82024AF004036AF3BC
:100A90008913D360D9F8003000200333C9F800303F
:100AA00000F08EFBAB1C234009EB83031848C3F80E
:100AB0000C80002100F042FC80F3100005EB0A03DB
:100AC00023402C40320C09EB8303023409EB8404ED
:100AD00042EA0040D860237966F3C5032371A388F6
:100AE0006AF38913A380626867F39F2213466AF34F
:100AF00001036FF382036260237199F820341BB104
:100B0000FFF7E0FD0028FBD1BDE8F0872A46B7E7F4
:100B100010050020F40000202DE9F04F3E4E83B078
:100B20000746002088460193B468924600F040FBD7
:100B3000B168736835680B4401335B1B042B68D8BC
:100B40000121364800F006FCFFF7FAFC0146334865
:100B500000F000FC96E80C00B1680B4401339B1ACE
:100B6000042BEDD94FF0010B0A404FF0030906EBBF
:100B700082024BF0040169F38911D16032680020D0
:100B80000532326000F01CFBA91C05EB090E214068
:100B90000EEA040E2A1D224006EB810106EB8E0EA2
:100BA00006EB8202019BC1F80CA01C48CEF80C3069
:100BB00000210C9BD36000F0C1FB80F3100005EB1B
:100BC0000B0222402C40390C06EB8202023406EB69
:100BD000840441EA0040D060227967F3C5022271A3
:100BE000A28869F38912A280616868F39F210A468E
:100BF0006BF3010213466FF382036160237196F871
:100C000020341BB1FFF75EFD0028FBD103B0BDE827
:100C1000F08F2A46A6E700BFF40000201005002050
:100C20002DE9F04F85B0DFF824910F9E0E9F0193C0
:100C300005460020884603960092D9F8084002979E
:100C400000F0B6FAD9F80810D9F80430D9F80060E5
:100C50000B4401339B1B052B74D801213A4800F04B
:100C600079FBFFF76DFC0146374800F073FB99E80C
:100C70000C00D9F808100B4401339B1A052BECD952
:100C80000A40012709EB82024FF0040A47F00403EF
:100C90006AF38913D360D9F8003000200633C9F80D
:100CA000003006F1030B00F08BFAB01C20400BEA79
:100CB000040B06EB0A0C06F1050E0CEA040C0EEA16
:100CC000040E09EB800009EB8B0B009B0199C360BC
:100CD00009EB8C0C09EB8E0ECBF80C10029A039BDF
:100CE0001948CCF80C200021CEF80C3000F026FB7F
:100CF00080F31000F319234034402A0C09EB8303DE
:100D0000023409EB840442EA0040D860237965F399
:100D1000C5032371A3886AF38913A380626868F30B
:100D20009F22134667F301036FF38203626023710E
:100D300099F820341BB1FFF7C5FC0028FBD105B0A2
:100D4000BDE8F08F32469BE710050020F40000203C
:100D500030B4174DD5F8104400215CB1E3681A791E
:100D60008A4204D117E0DB681A798A4213D01B68E3
:100D7000002BF8D1C3680E4A1971D5F8103493B11D
:100D8000DC68C36824681C60D2F81034DB68186023
:100D9000084630BC704701310A29DED14FF0FF31DF
:100DA000084630BC7047C2F81004C2681360EFE711
:100DB000F400002038B5094BD3F81044012583F81E
:100DC00020544CB1E3685D71236820465B68984706
:100DD000E3681C68002CF5D138BD00BFF40000208A
:100DE0002DE9F04784B01D460C9C002394F80C803C
:100DF0002373EB8881460E461746002B3BD1297A98
:100E000005290FD06B7A002B3DD1404BA88853F8B1
:100E100021A00021FFF716FC524603463C4920461C
:100E200000F034FB062F0FD8DFE807F0484D535A87
:100E300004633900B168F06896E80C0000910190F5
:100E40004946204600F022FB2B7A052B05D06B7A11
:100E50005BB920462F4900F019FB204600F00AFB41
:100E600084F80C8004B0BDE8F08720462A492B4A5C
:100E700000F00CFBEDE7294A009220462849294A58
:100E800000F004FBBBE7A888FFF706FC264B2249CD
:100E900053F82020204600F0F9FA297AB5E796E8C1
:100EA0000C00B168F068376976690396009101908B
:100EB00049460297204600F0E9FAC5E74946204630
:100EC00000F0E4FAC0E749463268204600F0DEFA56
:100ED000BAE74946204696E80C0000F0D7FAB3E797
:100EE000B16896E80C0020460091494600F0CEFA21
:100EF000AAE7B1683069F76896E80C0000910290A3
:100F000049460197204600F0C1FA9DE7683E00007F
:100F1000CC3E0000D83E0000C83E0000C03E0000AD
:100F2000A03E0000B83E00007C3E0000082900D929
:100F300070472DE9F0471D46002395F80C902B7360
:100F4000D38882B0904607460E46002B62D198F8AF
:100F50000810052911D098F80930002B62D1384BC0
:100F6000B8F8040053F821400021FFF76BFB22463C
:100F700003463449284600F089FA002405E03A5D2A
:100F8000013400F083FA082C0AD0A64228462E49E4
:100F9000F5D828462D49013400F078FA082CF4D110
:100FA00028462B49DFF8CCA000F070FA00240DE0B1
:100FB0003A5DDAF80030134401345B7813F0970F90
:100FC00008BF2E2200F062FA082C0AD0A64228465A
:100FD0002049EDD828462049013400F057FA082C62
:100FE000F4D198F80830052B02D098F809305BB995
:100FF00028461A4900F04AFA284600F03BFA85F8DC
:101000000C9002B0BDE8F08728461549154A00F05B
:101010003DFAEDE7134A009228461349134A00F0BF
:1010200035FA94E7B8F80400FFF736FB104B0C498B
:1010300053F82020284600F029FA98F808108EE787
:10104000683E0000CC3E0000DC3E0000E43E0000B4
:10105000E83E0000EC3E0000D43E0000D83E000018
:10106000C83E0000C03E0000A03E0000B83E0000A8
:101070007C3E000024000020074B1B5C1F2B86BF1A
:1010800003F01F0305494FF0A041012202FA03F3C8
:10109000C1F80C35704700BF403F0000000300500E
:1010A000064B1A5C1F2A86BF02F01F0204494FF04C
:1010B000A04101239340C1F808357047403F00002C
:1010C00000030050C20770B40ED483070AD54FF056
:1010D000A0430C22C3F82C27C3F83027C3F860279D
:1010E000C3F8642770BC70474FF0A04303224FF44D
:1010F00000564FF480454FF400444FF48031C3F85C
:101100003427C3F83827C3F83C27C3F84027C3F86F
:101110000865C3F80855C3F80845C3F80815D4E7AF
:1011200000B585B000230390194644F2010001AADE
:101130000193029300F004F805B05DF804FB00BFD2
:1011400010B572B6FFF736FEFFF7BCFA0028FBD1E8
:10115000104B114C11491C1BE408240444F00100FD
:10116000FFF7F4FB0E4B1B68DB0700D500BE44F015
:1011700002000C49FFF7EAFBBFF34F8F0A490B4B04
:10118000CA6802F4E0621343CB60BFF34F8F00BF25
:10119000FDE700BFF0470000D0470000443F0000DB
:1011A000F0ED00E0503F000000ED00E00400FA0523
:1011B00072B6024A1368013313607047800600203C
:1011C000034A1368013B136003B962B6704700BF5E
:1011D000800600201EF0040F1CBFEFF309800AE018
:1011E000EFF308800549064A884201D8904202D8A8
:1011F0008D464FF00000034B18470000000004200C
:1012000000E003202D120000BFF34F8F0549064B6D
:10121000CA6802F4E0621343CB60BFF34F8F00BF94
:10122000FDE700BF00ED00E00400FA052DE9F04302
:1012300083B08146FFF7BEFDFFF744FA0028FBD1DB
:10124000324B334F9D6A334BB9F1000F54D0DF1B43
:10125000FF083F0447F001072F49D9F81820384606
:10126000FFF7E4FBD9F80800D9F80C1099E80C0056
:101270000090019138462949FFF7D2FCD9F81C109B
:10128000D9F81020D9F81430009138462449FFF7D6
:1012900043FC1E4BDB6A990729D4DFF89C800024AD
:1012A000012606FA04F32B4207D058F824301D49D2
:1012B00038461A460BB1FFF7B9FB01341A2CF0D1AE
:1012C0002A060DD42B0405D5104B17499A6B3846C6
:1012D000FFF7ACFB4846FFF797FF03B0BDE8F0838C
:1012E0000A4B12495A6B3846FFF7A0FBEAE738462B
:1012F0000F49FFF72BFBD0E7DF1BFF083F0447F048
:1013000001070C493846FFF721FBC2E700ED00E07A
:10131000D047000000480000603F0000783F000018
:10132000B03F0000504000007C4000005C400000E6
:101330000C400000D83F00007845000000B5024690
:1013400052E8000F0B4642E8003E9EF0000FF7D136
:101350005DF804FB00B5024652E8003F03EB0100D4
:1013600042E8000E9EF0000FF6D15DF804FB00BFCE
:1013700000B5024652E8003FA3EB010042E8000E30
:101380009EF0000FF6D15DF804FB00BF00B501230D
:1013900086465EE8002F42EA03004EE8000191F025
:1013A000000FF6D15DF804FB00B5002386465EE829
:1013B000000F00EA03024EE8002191F0000FF6D181
:1013C0005DF804FBB8B130B4416882680468521A11
:1013D000D2B2531E2160DBB242B101680A685C1EC2
:1013E000551C0D601370E3B2FF2BF6D1036800208B
:1013F000187130BC70470E20704700BF70B50446AE
:101400000020FFF7D5FE236861681A688A4215D963
:10141000511E19602168A3680D68087912F8016CE3
:10142000228AE4685B1BDBB2984206FB024400D2CE
:101430000B710020FFF7C4FE204670BD0024002081
:10144000FFF7BEFE204670BD38B5054600200C46AD
:10145000FFF7AEFE2A681368591C1160E9682A8AF2
:10146000641AB4FBF2F41C700020BDE83840FFF7AA
:10147000A7BE00BF826802B9704710B50446436931
:101480002168006998470023A36010BD0EB400B521
:1014900082B0039929B102AA04AB42F8043D00F0DE
:1014A00089F802B05DF804EB03B070472DE9F84FFE
:1014B0001746B9428A4606461D46DDF828B00B9A03
:1014C00073D30B464FF00108B3FBF7F39F4208F1CB
:1014D0000108F9D9A84538BFA84612F0010902D180
:1014E000BBF1000F41D1B168012402E0013D07FBCF
:1014F00004F4012DFAD8BAFBF4F39F42F7D92C4D2E
:1015000002E0B168BAFBF4F34A1CB2603268E85CEE
:101510005054B0687268904204FB13AA02D330465C
:10152000FFF7A8FFB4FBF7F4002CEAD1B9F1000FE4
:1015300015D0BBF1000F12D0C34510D92024B368D9
:101540003268591CB160D454B26873689A420BF186
:10155000FF3B06D2BBF1000F01D0C345EFD8BDE879
:10156000F88F3046FFF786FFF4E7930718D420245E
:10157000C345B8D9B16833684A1CB2605C54B168DD
:10158000736899420BF1FF3B05D2BBF1000FABD062
:10159000C345F0D8A8E73046FFF76CFFB168F4E721
:1015A000002D14BF20243024E2E74FF0010891E71A
:1015B000E04500002DE9F04F0D4685B0002900F010
:1015C000B2800B78DFF8E8A4064691460135002B7F
:1015D00000F0A580252B40F0A28129464FF000089D
:1015E0000D4611F8013B2D2B00F09381302B00F0BC
:1015F00093812B2B00F085812A2B00F09E81A3F193
:101600003002092A00F2BE816A1C002404EB840423
:1016100003EB44042A2BA4F13004154600F08E811C
:101620001378A3F13001092905F10102EED91A4618
:101630002E2A00F09081002701E015F8012F02F01A
:10164000FB03682BF9D0253A532A63D8DFE812F060
:1016500027016200620062006200620062006200B4
:10166000620062006200620062006200620062006A
:10167000620062006200620062006200620062005A
:10168000620062006200620062006200620062004A
:10169000620062006200620062006200620062003A
:1016A000620062006200620062006200620062002A
:1016B0006200620062004A01620062006200620031
:1016C0006200620062006200620062003601CE00C9
:1016D0006200620062006200CE006200620062008E
:1016E000620062006200A900620062006E00620097
:1016F0005400620062004A01D9F800301A1DC9F88E
:101700000020196800943B46CDF8048030460A2238
:10171000FFF7CCFE01352B78002B7FF457AF337BDE
:10172000002B40F06C8105B0BDE8F08FD9F8003097
:101730001A1DC9F8002018F0010F1F6840F025811C
:10174000002F00F0A581384602F045FB8046444555
:1017500015D9A4B14FF0200B00E084B1B268336812
:10176000511CB16003F802B0B26873689A4204F188
:10177000FF3402D33046FFF77DFE4445EDD8013FEC
:1017800017F8013F002BC5D0B2683168501CB0601B
:101790008B54B26873689A42F2D33046FFF76AFE00
:1017A000EEE7D9F80020131DC9F80030B36831689E
:1017B0001468581C3022B060CA54B36872689342EF
:1017C00080F018813268581C7821B060D154B2681A
:1017D00073689A4280F00A81082300220192214610
:1017E000009330461022FFF761FE93E7D9F80030EE
:1017F0001A1DC9F80020D3F800B08BEAEB73A3EBF5
:10180000EB73092B4FF0010108DD8AFB0302DB17A4
:10181000C3EBA203092B01F10101F6DCB94238BF89
:10182000394634B1BBF1000F02DB18F0040F00D0D1
:10183000013C18F0020F40F0D58018F0010F18D1CC
:10184000002C00F006818C4213D94FF0200CB268B6
:101850003368501CB06003F802C0B26873689A42E3
:1018600004F1FF3480F0F780002C00F0F2808C420D
:10187000EDD8BBF1000FC0F20D8118F0040F40F05D
:10188000F48008F00303022B00F0BF808DE8100104
:1018900059463B4630460A22FFF708FE3AE7B3684E
:1018A0003268581C2521B060D154B26873689A42DE
:1018B000FFF430AF3046FFF7DDFD2BE7D9F800200D
:1018C000131DC9F80030B36831681278581CB06035
:1018D000CA54B26873689A42FFF41CAF3046FFF7EF
:1018E000C9FD17E7D9F800301A1DC9F8002019689A
:1018F00000943B46CDF8048030461022FFF7D6FD19
:1019000008E70D4611F8013B2D2B48F004087FF441
:101910006DAE48F0010863E648F0020860E6B26880
:101920003168501CB0608B54B26873689A42FFF4FF
:10193000F2AE3046FFF79EFDEDE60024D9F8003008
:101940001A1DC9F800206A781B682E2A1C4405F16C
:1019500001057FF470AE6A78A2F13003092B05F11E
:1019600001054FF000073FF66AAE07EB870702EB71
:10197000470715F8012FA2F13003092BA7F1300713
:10198000F3D95CE61A46002452E6B846C7EB080BCA
:1019900018F8012B8AB1B1683368481CB0605A54FA
:1019A000B26873689A42F1D33046FFF763FDC7EB24
:1019B000080B18F8012B002AEDD15C457FF6AAAE82
:1019C0002027B3683268591CB160D754B268736875
:1019D0009A4204F1FF3402D33046FFF74BFD5C45D9
:1019E000EFD897E6002F3FF444AF26E73046FFF7E5
:1019F00041FDF1E63046FFF73DFDB368E2E63046D3
:101A000005B0BDE8F04FFFF735BD002F7FF43EAFC6
:101A1000002C3BD08C427FF639AF4FF0300CB268CF
:101A20003368501CB06003F802C0B26873689A4211
:101A300004F1FF3403D24CB38C42F0D826E7304691
:101A4000CDF80CC00291FFF715FDDDF80CC002992E
:101A5000F1E700240DE73046CDF80CC00291FFF706
:101A600009FDDDF80CC00299FEE6B268531CB360B4
:101A700033682B209854B26873689A42FFF401AF20
:101A800030460291FFF7F6FC0299FAE60024FDE6E3
:101A9000B8465CE6B268531CB36033682D20985496
:101AA000B26873689A42CBF1000BFFF4EAAEE7E745
:101AB00067666666FFF786BC2DE9F041B0F81080D6
:101AC000A8F104084144CF1C0646FFF797FCB7FB7A
:101AD000F8F7044678B3FFB200250123013FA0F8D0
:101AE000068006600571437128D0804609E063795D
:101AF000AF4203F101036371C8F80000066080463D
:101B00001CD03046FFF77AFC01350028EFD166790A
:101B1000721E234603D0013082421B68FBD81F6827
:101B20004EB1002523682146013538461C46FFF793
:101B30008BFCAE42F6D10020BDE8F0812046BDE826
:101B4000F08100BF04300121FFF704BCF8B501218A
:101B500004460430FFF70CFCC0B200B1F8BD667952
:101B6000721E234603D0013082421B68FBD81F68D7
:101B7000002EF3D0002523682146013538461C4647
:101B8000FFF762FCAE42F6D1F8BD00BF2DE9F0418F
:101B9000C68890F805E00EFB06FEAEF1040E02EBDF
:101BA000030C0446E64503F1040015460F46B0FB5E
:101BB000F6F238BFC3EB0E0506FB120012B1013A74
:101BC0002468FCD1321AAA4228BF2A468DB14FF0B0
:101BD00000082044AD1A07EB08010430904402F0DD
:101BE000E7F8B5422A46246828BF32460020002D77
:101BF000EFD1BDE8F08100BF2DE9F041C68890F833
:101C000005E015460EFB06FEAEF1040E05EB030CD7
:101C10001A1DE64504460F46B2FBF6F038BFC3EB8B
:101C20000E0506FB102110B101382468FCD1721A90
:101C3000AA4228BF2A468DB14FF000082144AD1AB0
:101C4000043107EB0800904402F0B2F8B5422A468E
:101C5000246828BF32460021002DEFD1BDE8F08175
:101C6000826800239360826813618268536182688E
:101C7000D3608268536082681360704710B510B1FA
:101C800001280FD010BD0E4CA36801226270002BFA
:101C9000F8D01A68A2605B6800209847A368002B00
:101CA000F7D110BD064C2369A070002BEAD01A684A
:101CB00022615B68012098472369002BF7D110BD92
:101CC0008406002010B50B4C237882B013B1852018
:101CD00002B010BD08486360A3602361E36000F0B8
:101CE000C9F8019000F0D4F801980123237002B0E4
:101CF00010BD00BF840600207D1C000038B5154DC6
:101D00006B78044603F0FF0073B114B163680020E0
:101D100098470020FFF74CFA6B6801336B60002096
:101D2000BDE83840FFF74CBAFFF742FA64B1AA6841
:101D300042B1944208D0134601E09C4204D01B6893
:101D4000002BFAD12260AC606B68002BE4D100F06C
:101D5000B3F8E1E78406002038B5084C0020FFF70F
:101D600027FA6368013B6360656815B900F0B6F84F
:101D700065700020BDE83840FFF722BA84060020D5
:101D800070B50A4A0A4B06784568047AC06853F869
:101D9000213052F8211084B003908DF80060019535
:101DA0008DF808406846984704B070BDA006002032
:101DB0009806002070B50A4A0A4B06784568846880
:101DC000C06853F8213052F8211084B003908DF888
:101DD000006001958DF808406846984704B070BDD2
:101DE000A0060020980600202DE9F043DFF878C017
:101DF00006784B7F0CF806300D46864690460FCD90
:101E000089B06C460FC495E80F009EF80050DFF8CB
:101E10005C901CF80550DFF858C049F8268084E82B
:101E20000F004CF82600049665B9B8F1000F0C4A73
:101E30000EF10C00694608BF002200F0A9F909B0B4
:101E4000BDE8F083B8F1000F064A0EF104006946C0
:101E500008BF002200F018FC09B0BDE8F08300BF05
:101E6000B51D0000811D0000AC0700209806002071
:101E7000A0060020054A13790BB185207047012187
:101E80001060537118461171704700BFA8060020FA
:101E9000084B1A68D20706D40122C02183F8001328
:101EA000C3F880211A604FF080430122C3F818253F
:101EB000704700BF00E100E0074B00221A6082B0CB
:101EC0001B68019301994FF080430122C3F804235A
:101ED0001A6002B0704700BF00010040074B0122AA
:101EE0001A604FF08042D2F80C3403F00113B3F1C2
:101EF000011FF8D0024B00225A71704704000040C5
:101F0000A806002010B5144B1A6882B062B10021F7
:101F1000124A19601B68507900934FF080410123E9
:101F2000009CC1F8083390B10D4B1A686AB10022C9
:101F30001A601B6801934FF080420221074B019801
:101F4000C2F808131B680120984702B010BD116841
:101F500053718847E8E700BF00010040A806002051
:101F600004010040014B1B68184700BFB006002069
:101F700038B50C4B984201D0002038BD00200D46EA
:101F8000FFF716F9084B1C7924B10020FFF718F968
:101F9000112038BD012220461D601A71FFF710F98B
:101FA000204638BD00200040B0060020044B984277
:101FB00000D07047034B00221A601A71704700BFAF
:101FC00000200040B006002030B56F4AD2F804333C
:101FD00099058BB05CD5D2F82431002B58D0002362
:101FE000C2F82431D2F8243103934FF40171674BC6
:101FF0000398C2F8081393F8291009B90121516018
:10200000614902228DF81820D1F88024C1F880247B
:102010009869D96809920022089007919A6193E81B
:102020001200DA6106A8A047574AD2F81C31C3B1A2
:10203000564B186A5969884267D293F8280000F015
:10204000FF04002861D1C2F81C41D2F81C11029192
:1020500002999C68186A196A205C01311962C2F8F9
:102060001C05494AD2F8443183B10021474BC2F8DC
:102070004411D2F8440193F829100090009809B156
:10208000012111609A69414B002A53D10BB030BD38
:102090003D4AD2F804335B07C6D5D2F80831002B8D
:1020A000C2D03A4B9969002953D00021C2F80811D7
:1020B000D2F8081104910499D868596AD2F8182501
:1020C00042545A6A996901325A62586A2F4A8842C0
:1020D000AAD1D169002945D192F8292012B92A4AFA
:1020E00001215160284A4FF40171C2F80813596A5E
:1020F000DA6808910024012007928DF8180093E80F
:1021000006009C6106A890478EE71F4A0020C2F88F
:102110001C01D2F81C210192019A0029A1D09A68D1
:102120008DF8180008915861079206A893E80600F8
:10213000904796E70022586AD9689A610122089070
:1021400007918DF8182006A893E8060090470BB079
:1021500030BDC2F80811D2F8080105900598D2F8F0
:102160001825B2E7D568546A1069916100230121EE
:10217000D060D36153628DF818100795089492E8E7
:102180000A0006A898474FE700200040B806002044
:102190002DE9F041744E05792C2303FB056382B0D1
:1021A00093F82A301BB1082002B0BDE8F0810F4639
:1021B00004466E4900689046FFF7DAFE18B1112018
:1021C00002B0BDE8F0813B68591C19D01F2B4FF0BD
:1021D00001028ABF66494FF0A04103F01F0302FAD3
:1021E00003F3C1F808353B681F2B86BF03F01F03BC
:1021F0005F4A4FF0A04203F5E073032142F8231039
:102200007B685A1C0BD01F2B86BF03F01F03584A54
:102210004FF0A04203F5E073002142F82310236839
:10222000BA69C3F82425397D7B7D22680B43C2F847
:102230006C3597E806002368C3F81425C3F80C151D
:102240003B7D012B53D02C2303FB05F3F218C2F87E
:1022500004803A69F250B8F1000F36D023683A7F13
:10226000444F0021C3F81C11D3F81CE12368CDF8BA
:1022700004E0DDF804E0C3F84411D3F84411236806
:1022800000910099C3F804732168090B4BB2002B2D
:1022900061DB03F1604303F561435201D2B283F87D
:1022A00000232268120B42F3C40323F0604323F09F
:1022B000030303F1604303F5614302F01F020121B0
:1022C00001FA02F2C3F880211A602C23276803FB6D
:1022D000056300224FF0040E0124C7F800E5DA611F
:1022E0009A615A6183F8292083F82A405CE7BB6829
:1022F000591C0BD01F2B86BF03F01F031C494FF046
:10230000A04103F5E073002241F82320FB685A1C2A
:102310001AD01F2B8ABF16494FF0A04103F01F03AC
:10232000012202FA03F3C1F80835FB681F2B88BFAE
:1023300003F01F0303F5E0738CBF0D494FF0A0417C
:10234000032241F82320FB682268B968C2F80835E7
:10235000C2F8101577E7084B01F00F0152010B444A
:10236000D2B21A769DE700BFB8060020C91F000050
:102370000003005080000200FCEC00E0F8B53A4E8B
:10238000047902682C2303FB046300215B68C2F814
:10239000001583B10368354AC3F808230368344D38
:1023A0001B0B5AB25209203203F01F03012101FA1C
:1023B00003F345F8223003684FF0FF3ED3F80C7565
:1023C000D3F81455D3F80825D3F81015C3F814E53D
:1023D000C3F80CE503687745C3F808E5C3F810E5D2
:1023E0000CD01F2F86BF07F01F07224B4FF0A043D2
:1023F00007F5E0774FF0020E43F827E06F1C0BD093
:102400001F2D86BF05F01F051A4B4FF0A04305F5A1
:10241000E075022743F825704D1C0BD01F2986BF9D
:1024200001F01F01134B4FF0A04301F5E0710225AD
:1024300043F82150531C0BD01F2A86BF02F01F0205
:102440000C4B4FF0A04302F5E072022143F822103A
:102450000068FFF7ABFD2C2303FB0464002384F822
:102460002A306360F8BD00BFB80600208402020075
:1024700000E100E0000300502DE9F041344F0679FF
:102480002C2303FB067384B05C6903F110051CB1B7
:10249000112004B0BDE8F0811C62996083F82840E7
:1024A0005A610268C2F81C41D2F81C110191019ACC
:1024B0000268012191600268D3F808C0C2F81C418B
:1024C000D2F81C1102910299D3F82080196AD3F82E
:1024D00004E01CF8088001311962C2F81C85BEF1C5
:1024E000000F03D0204604B0BDE8F0815C691A6A91
:1024F0000168944288BF754603D819E093F82820F4
:102500001ABBD1F81C21002AF8D0C1F81C51D1F80F
:102510001C210392039AD3F820E01A6A1CF80EE0FB
:1025200001321A62C1F81CE51A6A9442E9D80168BE
:10253000D1F81C31002BFBD00123CB6000202C23D1
:1025400003FB067300225A61A3E70F20F7E700BFE1
:10255000B8060020F0B54A4BD3F8242189B0002AF0
:1025600055D1D3F81011F1B9454BD3F8442152B1EC
:102570000020444AC3F84401D3F8444191690194CE
:10258000019C002960D13E4BD3F820214AB10021A3
:102590003C4AC3F82011D3F8204150690094009CB4
:1025A00030BB09B0F0BDC3F81021D3F81011354885
:1025B000039103998169D3F83C458C42D4D1C56914
:1025C000002D50D0D3F80012C7680669856121F04C
:1025D0002001C3F80012C26101220168C66043688D
:1025E0008DF8184005978DF8102004A89847BBE790
:1025F000D3F84C0593688DF818008DF810105161D0
:10260000059304A892E80A00984709B0F0BD00219C
:10261000C3F82411D3F82421029202228DF810204D
:10262000029AD3F88004174AC3F880040790D3F8BD
:102630003C05D3688DF818009161D161059311684C
:10264000536804A898478FE7D3F83C458DF81840A5
:10265000D368906101240593116853688DF8104088
:1026600004A898478FE7C368016885610122059334
:102670008DF8184043688DF8102004A8984773E738
:1026800000200040E40600202DE9F0430479844E48
:10269000E7003B1906EB830385B093F820301BB1AC
:1026A000082005B0BDE8F083894605467D490068ED
:1026B0009046FFF75DFC18B1112005B0BDE8F0832E
:1026C000D9F80030591C1AD01F2B4FF001028ABFD5
:1026D00075494FF0A04103F01F0302FA03F3C1F85C
:1026E0000835D9F800301F2B86BF03F01F036E4A50
:1026F0004FF0A04203F5E073032142F82310D9F80C
:1027000004305A1C0BD01F2B86BF03F01F03664AF0
:102710004FF0A04203F5E073002142F823102B682C
:10272000D9F81820C3F8242599F8141099F8152021
:102730002B680A43C3F86C252A68D9F80030D9F809
:102740000410C2F80C35C2F8141599F81430012B96
:1027500064D03A199200B318C3F80480D9F8103045
:10276000B350B8F1000F4AD0296899F81C20DFF85F
:1027700040E10023C1F81031D1F810C12968CDF82B
:102780000CC0DDF80CC0C1F82031D1F820C1296897
:10279000CDF808C0DDF808C0C1F82431D1F824C153
:1027A0002968CDF804C0DDF804C0C1F84431D1F87F
:1027B00044112B6800910099C3F804E32968090BC0
:1027C0004BB2002B63DB03F1604303F5614352011D
:1027D000D2B283F800232A68120B42F3C40323F019
:1027E000604323F0030303F1604303F5614302F008
:1027F0001F02012101FA02F2C3F880211A603C4451
:1028000006EB84042D6800230127082684F8207035
:10281000C5F80065E361A361636142E7D9F8083058
:10282000591C0BD01F2B86BF03F01F031E494FF00E
:10283000A04103F5E073002241F82320D9F80C30C1
:102840005A1C1CD01F2B8ABF17494FF0A04103F020
:102850001F03012202FA03F3C1F80835D9F80C303E
:102860001F2B88BF03F01F0303F5E0738CBF0E49D5
:102870004FF0A041032241F82320D9F80C302A68F8
:10288000D9F80810C2F80835C2F8101561E7074BEF
:1028900001F00F0152010B44D2B21A769BE700BF40
:1028A000E40600205525000000030050FCEC00E089
:1028B00010030200F8B505793A4C0268EE0073196E
:1028C00004EB830300215B68C2F8001583B1036841
:1028D000354AC3F808230368344F1B0B5AB2520918
:1028E000203203F01F03012101FA03F347F82230DD
:1028F00003684FF0FF3CD3F80CE5D3F81475D3F818
:102900000825D3F81015C3F80CC5C3F814C503681F
:10291000E645C3F808C5C3F810C50DD0BEF11F0FBA
:1029200086BF0EF01F0E224B4FF0A0430EF5E07E47
:102930004FF0020C43F82EC07B1C0CD01F2F86BF1B
:1029400007F01F071A4B4FF0A04307F5E0774FF051
:10295000020E43F827E04F1C0BD01F2986BF01F061
:102960001F01134B4FF0A04301F5E071022743F81C
:102970002170531C0BD01F2A86BF02F01F020C4B84
:102980004FF0A04302F5E072022143F822103544D3
:1029900004EB85040068FFF709FB002384F820306E
:1029A0006360F8BDE40600201003020000E100E0CF
:1029B00000030050F0B501F06043B3F1005F83B055
:1029C000047902D0102003B0F0BD4FEAC40E214FAD
:1029D0000EEB040507EB85056B6913B1112003B0FD
:1029E000F0BDA9606A610668C6F82031D6F820C13A
:1029F0000668CDF800C0DDF800C0C6F85831D6F83A
:102A000058C10668CDF804C0DDF804C0C6F8441506
:102A1000C6F848250268012191606A680AB1184623
:102A2000D1E7036800E092B9D3F82011D3F8582118
:102A3000003218BF01220029F5D0002A0CBF002067
:102A40000F20744407EB840400226261BBE70F206F
:102A5000F7E700BFE4060020012905D0022902D1D2
:102A60000020FEF71DBB70470020FEF705BB00BF2E
:102A70002DE9F0410020A8B04FF480730146009387
:102A8000FDF7C2FD00286AD1FDF74AFD0120FEF7DF
:102A900019FB4348002101F06BF800287CD1414D1F
:102AA000DFF80881DFF808C1CDF864800FCD2C462F
:102AB00007AE54F804EBCDF87C800FC60FCC0CAFFA
:102AC0000FC7C6F800E02168396000264FF0010EFC
:102AD00007AA0CAB18351B928DF858E08DF860E012
:102AE0008DF870E08DF878E08DF8596017968DF8C4
:102AF00071601D96CDF868C0CDF880C021930FCDD0
:102B000011AC0FC411AF2A688DF888E001AD032322
:102B100004A816A98DF8896023968DF890E0CDF869
:102B20009480CDF898C00696226027970495059367
:102B300000F0D6FDE0B1FEF7F3FA1B48009901F072
:102B40004FF890B901F0E4F860B9FDF7BBFD00283B
:102B5000FBD120BFFDF7B6FD0028F6D1F9E7FEF75F
:102B6000DFFA91E7FEF7DCFAEFE7FEF7D9FAE9E7DB
:102B700004A81CA900F0B4FD0028DCD104A822A9F7
:102B800000F0AEFD0028D6D104A807496A4600F03F
:102B90006DFD0028D1D0CEE7FEF7C2FA7FE700BF77
:102BA000592A000014460000B007002088460000A3
:102BB000B537000010B44FF080414FF08052002034
:102BC000C1F80C015E4BC1F81001C1F83805D2F80C
:102BD0000414C3F82015D2F80814C3F82415D2F849
:102BE0000C14C3F82815D2F81014C3F82C15D2F819
:102BF0001414C3F83015D2F81814C3F83415D2F8E9
:102C00001C14C3F84015D2F82014C3F84415D2F8A8
:102C10002414C3F84815D2F82814C3F84C15D2F878
:102C20002C14C3F85015D2F83014C3F85415D2F848
:102C30003414C3F86015D2F83814C3F86415D2F808
:102C40003C14C3F86815D2F840043E49C3F86C053B
:102C50000968D2F84424C3F87025082924D04FF01D
:102C60008043D3F80024D20744BF6FF00102C3F8B9
:102C70000024354AD2F8883043F47003C2F8883013
:102C8000BFF34F8FBFF36F8F4FF01023D3F80022A5
:102C9000002A23DBD3F80432002B1FDB2B4B2C4AFA
:102CA0001A605DF8044B70472A4B1B68002BD6D185
:102CB00029492A4B2A4C0C602A482B4A2B4CFB21D1
:102CC000C3F818150368116823F00F0201F00F0311
:102CD00013434FF4007203602260C0E7244B0122CB
:102CE000C3F80425D3F80024002AFBD04FF01023AA
:102CF00012221F49C3F80022D1F80034002BFBD068
:102D00004FF0102312221A49C3F80422D1F80024EC
:102D1000174B002AFAD00022C3F80425D3F8002468
:102D2000002AFBD0BFF34F8F0749124BCA6802F449
:102D3000E0621343CB60BFF34F8F00BFFDE700BFDE
:102D400000C000403001001000ED00E01C00002039
:102D50000090D003340100108C56004000F0004079
:102D600048810300E40E00405802001040960240E3
:102D700000E001400400FA05F0B5284B19780A2953
:102D800085B047D0264A072913781ED05678957803
:102D9000D4788DF8043073406B4063400DF1090026
:102DA000FF2104228DF808308DF805608DF806505B
:102DB0008DF8074001F007F803238DF80D3001A8C6
:102DC0000A2100F08BFF05B0F0BD5778D578147953
:102DD0005079967891798DF8043084EA05027B4029
:102DE00083F08803424073404A404FF0030E8DF851
:102DF00005708DF807308DF806608DF808508DF855
:102E000009408DF80C208DF80A008DF80B108DF814
:102E10000DE0D4E7024800F061FFD4E72807002066
:102E20003407002070B5F8B93D4B1B78082B03D050
:102E30003C4B01221A6070BD3B4B1B681A07F7D14F
:102E40003A4B1B6813F0F00F04D1394B1B6813F099
:102E5000F00FEDD03749087880B9374B1A68013246
:102E60001A601A68022A00D070BD344A2D4C1860CE
:102E7000012323600B70D360136070BD304A284873
:102E8000002313700B700378082B1CD0117801F00D
:102E9000FF0341BB1846234B2A4CD3F83C3421682E
:102EA000194221D0284C237853B930B9224B2349F9
:102EB000186001231370CB600B602448FEF71EFFDF
:102EC0000123237070BD184B1B681B07DED1174B05
:102ED0001B6813F0F00FD9D1154B1B6813F0F00FDE
:102EE000D4D10120D7E770BD012208B1184B1A6078
:102EF0000C4E0125B560FEF72FFF1348154B00223D
:102F00004FF488610270C6F808131E682560002E11
:102F1000AAD0114B294618681346B04770BD00BFB0
:102F2000E00F00F000500040E40F00F0E80F00F068
:102F3000EC0F00F01A0700202C07002000B0014021
:102F40001907002020000020180700201C0700207F
:102F500010500040300700202407002070B536488C
:102F6000364C012303612578B5B9354A1168013122
:102F700011601168022904D02F4B0022C3F84021B0
:102F800070BD304915600B602370C36003602A4B2D
:102F90000022C3F8402170BD2B482C49002202704A
:102FA00022700A78082A1CD0027802F0FF03002A57
:102FB000E2D1244A264CD2F83C24216811421FD089
:102FC000244C227852B933B91D491B4A0B600123A6
:102FD0000370D36013602048FEF790FE0123237036
:102FE000CAE71E4A12681207DED11D4A126812F0A3
:102FF000F00FD9D11B4A126812F0F00FD4D1D8E7E4
:1030000001220BB1184B1A600E4E0125B560FEF778
:10301000A3FE1048154B00224FF488610270C6F8D9
:1030200008131E682560002EA6D0114B294618688B
:103030001346B047A0E700BF00B001401A070020C8
:103040002C0700200050004019070020E00F00F07E
:1030500020000020180700201C070020E40F00F0CB
:10306000E80F00F0EC0F00F0105000403007002097
:10307000240700202DE9F8437B4C7C4D7C4B2278C3
:1030800028601960002A6ED07A4B1B78082B00F05C
:10309000B180794B79497A4C06250320042AC1F87E
:1030A0000453C1F80443C1F80C0500F0D980072A85
:1030B00000F0D0805A781D789C787248120242EA5B
:1030C00005432343C1F898358424427803788178F6
:1030D0006A4D120242EA03430B430330C5F89435AC
:1030E00041780378C27885786448090441EA03632B
:1030F000134343EA0523C0F89035C0F8A045FFF715
:103100003BFE614B614A5A6000221A60FEF7DAFD0D
:10311000584B1B78082B5ED05D4B5E4A00244FF065
:1031200000614FF0040C4FF47A7E01274FF4803693
:10313000C025C3F80445C3F80845C3F810C5C3F853
:1031400040E5C3F80072C3F80463C2F8801182F846
:103150001B53116028B185280CBF00200320BDE857
:10316000F883BDE8F8834FF0805307222270D3F82C
:103170005004D3F85424D3F858143F4B4FEA122C80
:103180004FEA124E170ED2B24FEA10294FEA1048FA
:103190000E0A0D0C882A83F80190187083F80280BB
:1031A000D97183F804C083F805E09F71DA701E724C
:1031B0005D7252D02F4A1278082A3BD02F4B3049EB
:1031C0002D4806240322C3F80443C3F804134424FF
:1031D000C3F80C2579E7304B1B681C079CD12F4B9B
:1031E0001B6813F0F00F97D12D4B1B6813F0F00FF5
:1031F00092D1AFE7284B1B6813F00F0F1E4B7FF4E3
:1032000049AF2649096811F0F00F7FF443AF244914
:10321000096811F0F0017FF43DAF224D224A234F9F
:10322000234E24482F6001273F2537600560116039
:1032300022782FE7184A116809074FF00702E0D0FB
:103240000E4B0F4906200322C3F80403C3F80413EE
:10325000C3F80C250848442437E79922DA70A9E717
:10326000054814463CE700BF28070020300700202F
:1032700024070020E00F00F0340700200050004039
:1032800080000800370700201C070020252E0000C2
:1032900000B0014000E100E0E40F00F0E80F00F0B2
:1032A000EC0F00F08C5600403C5600404881030073
:1032B0001C5600402C56004030B4084B08490124ED
:1032C0002022C025C1F804448C60C3F8802183F813
:1032D00005531A60002030BC704700BF00E100E0D9
:1032E0000050004009B90C20704770B40C4D0D4AD5
:1032F00000232B6083B02D680195019EC2F8100554
:10330000C90040F6F8740C40102501211846C2F897
:103310001C45C2F80453D16003B070BC704700BFB5
:103320001051004000500040F0B5A24BD3F80421EA
:103330008BB0002A6AD0D3F80023910766D59E4A45
:103340000021116012680192019AD3F80821002A25
:1033500040F0F6800223994A1278082A184600F0B5
:10336000FB80974A117801F0FF02C1B9032B00F0EE
:103370004D81012B00F00381022B10D1914C237859
:103380005BB93AB9904B91498D481A60012303709B
:10339000CB600B608E48FEF7B1FC01232370854A99
:1033A000D2F818311BB1D2F800335B0659D4814BE7
:1033B000D3F810211AB1D3F80023D60637D47D4BA9
:1033C000D3F84C211AB1D3F8002315036DD4794BEF
:1033D000D3F81C21C2B1D3F80023140614D57D4ABA
:1033E000D3F804040021116012680992C007099AF9
:1033F00006D5794A107818B10120C3F80404117079
:103400006C4B0122C3F804240BB0F0BD694BD3F818
:103410000821002AC3D0D3F800335A07BFD56F4B19
:1034200000221A601B680293029B012393E76C49F8
:103430006C4D6D4800220A60096805910124102135
:10344000059EC3F80813C3F81055C3F81415DC61C2
:103450000468002CB3D0654B032118681346A047BD
:10346000ADE76349D2F8243500200860096803916C
:103470000399D2F82811002948D15A4A11783029E5
:1034800000F0D2801378502B00F0DB80494BD3F84A
:10349000202412F0010F4FF0010214BF9A625A6209
:1034A000444B4022C3F8082381E7524C5048524A0B
:1034B000DFF830E14C4E514D002121602468069424
:1034C000069C0160006807900798116012680892D6
:1034D0004FF48864012210270D20DDF820C0C3F8C6
:1034E00010E5C3F81475DA61C3F80443C3F80C049B
:1034F000C3F80424346802232B60002C3FF467AF28
:103500003A4B0A4618680B46A04760E7D2F800130A
:103510004F05B2D53849D2F80C44086009680491C7
:103520000D210C420498C2F80C14A6D0D2F8203415
:1035300013F0010F4FF0010314BF93625362AFE722
:10354000D3F800335B077FF505AF244B19601B6888
:103550000293029B0323FEE6294A126812077FF4B6
:1035600000AF284A126812F0F00F7FF4FAAE264A34
:10357000126812F0F00F7FF4F4AE0122F6E61F4D50
:10358000002A4ED10B4E0124B460FEF7E5FB0D4836
:10359000154B00224FF488610270C6F808131E68AC
:1035A0002C60002E3FF4FBAE104B214618681346EA
:1035B000B047F4E60050004004510040E00F00F036
:1035C00019070020180700202C07002000B0014038
:1035D0001C0700201C5100403E07002008510040FD
:1035E0001051004008070020300700202407002069
:1035F000185100404C51004028510040200000204C
:10360000E40F00F0E80F00F0EC0F00F0114B124D4A
:10361000D3F83C34296819427FF4B0AE0120002A67
:10362000B0D00E4B1860ADE70D490C68002C3FF48C
:10363000BEAE0C49C3F3C8030868023B0221A04791
:10364000B5E60949034B012040220870C3F808235E
:10365000ADE600BF005000402000002010500040A8
:1036600030070020240700203E0700202DE9F0430A
:10367000804683B040B3914632B3076827B383686E
:1036800063B300260D46043F34460CBB012B0CBF30
:10369000C0218021D9F800309B1B019357F8040FFB
:1036A0002A4601AB00F02AF8013470B9019B1E4490
:1036B00005B11D44D8F80830A342E6D80020C9F867
:1036C000006003B0BDE8F0830E2003B0BDE8F083D6
:1036D000611C99420CBF40210021DBE71E46EDE74B
:1036E00083684268934201D304207047026842F81D
:1036F0002310836801338360002070472DE9F04177
:10370000044684B018B316464578027A2A443DB17F
:10371000D51D46B18A061ED0072004B0BDE8F08151
:10372000951D002EF6D1B046276901937FB16069DF
:10373000314603AAB8470028EFD1019B039A16B17E
:1037400011BAC8F800102A441A600020E5E70E20DC
:1037500004B0BDE8F0811A68AA4203D2042004B084
:10376000BDE8F08131702278B046114308F8021BA1
:10377000227A727062787AB906363046E168227A27
:10378000019300F015FB217A6278019B0E444AB93F
:103790001A68521B0392C7E741F008013170B271F9
:1037A0000736EAE73046616800F002FB6278019B69
:1037B0001644EDE7F8B5037A5CB2002C01DC072073
:1037C000F8BD5C06FBD44468002CF8D00569002DD8
:1037D000F5D0C468002CF2D0002AF0D0013516468E
:1037E0000446EF18A9B11268BA4201D20420F8BD0C
:1037F00002780D4603EBC21305F8013B6168227A9B
:10380000284600F0D5FA207AE1682269284400F0C1
:10381000CFFA37600020F8BD2DE9F047C64C84424E
:1038200001D0BDE8F0870329FBD8DFE801F01E31A5
:1038300054022378042B00F06581052BF1D194F814
:10384000682094F8693004219A422170E9D194F8F3
:103850006A30002BE5D11A466568A0680321A847A5
:10386000012384F86A30BDE8F0872378042B00F048
:103870003981052BD5D0032BD3D104226568227062
:103880000023A068AC461A460121BDE8F047604716
:103890002378042B00F02881052B00F0358194F863
:1038A0006950002D00F0128100210E4602220820EE
:1038B0000127013107FA02F3A94243EA000300F0AD
:1038C0000781013AD8B2F4D5A319072283F848003A
:1038D00001360020EDE7002BA3D0002AA1D01178FB
:1038E00030299ED1022B9CD12378042B99D1577873
:1038F0006269BE0005239642237004D3A369103B7E
:103900009E4240F203818D4D10222846002100F096
:103910005AFA63699E4280F0FF80A3EB0608A5F186
:103920001401B8F10F0F314400F2008142462846DD
:103930001E4600F03DFA4544C8F11008A369B342A1
:1039400012D961692269E368711AA2EB0109C145C4
:1039500028BFC146284619444A4600F029FAB8EB68
:1039600009084E444D4432D0A369B34200F0EA80C6
:10397000E369B3420ED99B1B434528BF4346994692
:1039800028461A4600211E4400F01DFAB8EB09082B
:103990004D441CD0236AB34214D99B1B434528BF16
:1039A00043461A462846FF21994600F00CFAE3697F
:1039B0000E339E1B46459CBF3F23AB55B8EB090811
:1039C0004D4404D042462846002100F0FCF95B4DEE
:1039D00028461021FFF786FCFB08A7EBC30E032F38
:1039E000CEF1070094F8682040F2948004EB030CB9
:1039F00001269CF8481006FA00F011EA000504D0F0
:103A000021EA00018CF8481035462A44D2B201263A
:103A1000DEF1060507F1010144BF0133072511F06E
:103A2000FF014CD0032912D904EB030C4FF0010E17
:103A30009CF848100EFA05F611EA060004D021EAB7
:103A400006018CF8481070460244D2B2012605F1F6
:103A5000FF3E002D66D0B91C11F0FF012FD00329C5
:103A600011D904EB030C01269CF8481006FA0EF558
:103A700011EA050004D021EA05018CF8481030460F
:103A80000244D2B201260EF1FF31BEF1000F46D042
:103A9000F81C10F0FF0012D0032810D02344012698
:103AA00093F8480006FA01F110EA010504D020EA73
:103AB000010183F8481035462A44D2B20126002E6F
:103AC0003FF4AFAE84F86820BDE8F0872E46284664
:103AD0002644002386F8480084F8683084F86A3069
:103AE000BDE8F087BDE8F0870123154A6568A06846
:103AF00003EB43031A4400239278227002211A46F2
:103B0000A847CCE6BDE8F0870423EEE7E568B61ADF
:103B100035445DE700267BE74FF010080EE70133E0
:103B20000721B5E701334FF0070E94E7102228462E
:103B300000F03EF94CE700BF400700207807002066
:103B400098460000236A002B3FF412AFE3699E42BF
:103B50003FF40EAF01222846FE21164400F033F94F
:103B6000B8F1010805F101057FF402AF2FE700BFAE
:103B700058B1F8B5174C2378042B04D0052B02D08C
:103B8000032B00D01BB10820F8BD072070470B465F
:103B9000606001250A221049A36004F12400257009
:103BA000E12700F005F91026FF237C250F2284F879
:103BB0002E3084F82F3084F8307084F8316084F827
:103BC000325084F8332021460448BDE8F840FFF71E
:103BD00051BA00BF400700208C4600001938000091
:103BE000B1F5777F01D90C207047F0B4394E3378A6
:103BF000042B08D0052B06D0032B04D01BB1012BBE
:103C000004D0022B5CD00820F0BC70470923324A54
:103C100003EB430313449B7833700323002851D0F4
:103C2000FE29F060316186F834303AD84D1DAD0878
:103C3000C8B2EFB2123112244FF47C724FF4806399
:103C400086F835007461B16186F86970F26133629B
:103C50009DB300210846022208240127013107FAFA
:103C600002F3A94243EA040311D0013ADCB2F5D5CC
:103C700033180722013183F84840A9424FF000046D
:103C800007FA02F300F1010043EA0403EDD133180F
:103C9000002083F8484086F8680086F86A00F0BC87
:103CA0007047CD1D0B0AAD0886F83710EFB286F8C5
:103CB000363014311424FF20BEE728462C46E6E7B0
:103CC0000C23A4E70125F060306186F834302F46DC
:103CD0001221B0E7400700209846000010B50446C6
:103CE00050B10A2901D00C2010BD0A4601460648F1
:103CF00000F05EF8002010BD0A220449024800F0DE
:103D000057F8204610BD00BF640700208C46000015
:103D1000094A1378042B08D0052B06D0032B04D0B6
:103D20001BB1012B01D0022B01D0082070470323C7
:103D30001370FFF7C1BA00BF4007002008B5074B5A
:103D4000044613B10021AFF30080054B1868836A65
:103D500003B19847204600F047F800BF000000007C
:103D6000C847000070B50E4B0E4CE41AA410002595
:103D70001E46A54204D056F8253098470135F8E78D
:103D800000F034F8084C094BE41AA41000251E4634
:103D9000A54204D056F8253098470135F8E770BDA4
:103DA00088000020880000208C000020880000206F
:103DB00010B5431E0A44914204D011F8014B03F898
:103DC000014FF8E710BD02440346934202D003F8C6
:103DD000011BFAE77047034613F8012B002AFBD1B9
:103DE000181A013870470000FEE700BFF8B500BFA1
:103DF000F8BC08BC9E467047F8B500BFF8BC08BCCC
:103E00009E467047FFFFFFFFFFFFFFFFFFFFFFFF23
:103E1000FFFFFFFF00000000000000000000D601CF
:103E200006010000F503000061040000F10300003A
:103E3000756172745F6C6F675F6261636B656E64FE
:103E4000000000004261636B656E647320666C75F0
:103E5000736865640000000061707000D805002080
:103E60007F000000680600200000000028420000DB
:103E7000283F0000303F0000383F0000C03E0000F7
:103E8000F03E0000B83E0000F83E0000003F000099
:103E9000083F0000103F0000183F0000203F0000D6
:103EA00025734C6F67732064726F7070656420288F
:103EB00025642925730D0A001B5B313B33316D00EE
:103EC0001B5B306D00000000257300003C25733E35
:103ED0002025733A200000000D0A00002025303212
:103EE00078000000202020007C00000025630000F6
:103EF0001B5B313B33306D001B5B313B33326D005C
:103F00001B5B313B33336D001B5B313B33346D0046
:103F10001B5B313B33356D001B5B313B33366D0032
:103F20001B5B313B33376D007761726E696E6700E2
:103F3000696E666F000000006465627567000000CE
:103F40000D0E0F10466174616C206572726F720005
:103F500053797374656D2072657365740000000099
:103F600048415244204641554C54206174203078D9
:103F70002530385800000000202052303A202030F0
:103F80007825303858202052313A2020307825309A
:103F90003858202052323A202030782530385820A6
:103FA0002052333A20203078253038580000000065
:103FB00020205231323A2030782530385820204C99
:103FC000523A202030782530385820205053523A29
:103FD0002030782530385800537461636B2076693F
:103FE0006F6C6174696F6E3A20737461636B2070DB
:103FF0006F696E746572206F757473696465207380
:104000007461636B20617265612E0000436175739A
:10401000653A204275734661756C74206F6E20613D
:1040200020766563746F72207461626C65207265BE
:10403000616420647572696E672065786365707469
:10404000696F6E2070726F63657373696E672E009F
:1040500043617573653A2025732E00004D656D4DE3
:10406000616E616765204661756C7420416464729D
:104070006573733A203078253038580042757320C4
:104080004661756C7420416464726573733A2030C4
:1040900078253038580000005468652070726F63CE
:1040A0006573736F722068617320617474656D70DD
:1040B00074656420746F206578656375746520612C
:1040C0006E20756E646566696E656420696E7374D2
:1040D00072756374696F6E005468652070726F63E7
:1040E0006573736F7220617474656D70746564209C
:1040F00061206C6F6164206F722073746F72652031
:1041000061742061206C6F636174696F6E207468E4
:10411000617420646F6573206E6F74207065726DBA
:10412000697420746865206F7065726174696F6E60
:1041300000000000556E737461636B20666F72201F
:10414000616E20657863657074696F6E2072657446
:1041500075726E2068617320636175736564206F8A
:104160006E65206F72206D6F726520616363657389
:10417000732076696F6C6174696F6E730000000064
:10418000537461636B696E6720666F7220616E2085
:10419000657863657074696F6E20656E74727920DE
:1041A00068617320636175736564206F6E65206F4D
:1041B00072206D6F72652061636365737320766929
:1041C0006F6C6174696F6E730000000041204D6573
:1041D0006D4D616E616765206661756C74206F63FB
:1041E00063757272656420647572696E6720666CAF
:1041F0006F6174696E672D706F696E74206C617A7F
:10420000792073746174652070726573657276616C
:1042100074696F6E00000000496E73747275637488
:10422000696F6E20627573206572726F7200000094
:104230004461746120627573206572726F72202808
:1042400050432076616C756520737461636B65649F
:1042500020666F7220746865206578636570746984
:104260006F6E2072657475726E20706F696E7473F4
:1042700020746F2074686520696E7374727563743E
:10428000696F6E2074686174206361757365642062
:10429000746865206661756C7429000044617461FE
:1042A00020627573206572726F7220287265747552
:1042B000726E206164647265737320696E20746825
:1042C0006520737461636B206672616D652069732C
:1042D000206E6F742072656C6174656420746F2049
:1042E00074686520696E737472756374696F6E208B
:1042F00074686174206361757365642074686520F7
:104300006572726F72290000556E737461636B2061
:10431000666F7220616E20657863657074696F6E78
:104320002072657475726E206861732063617573A5
:104330006564206F6E65206F72206D6F726520421C
:1043400075734661756C747300000000537461638B
:104350006B696E6720666F7220616E206578636599
:104360007074696F6E20656E747279206861732055
:10437000636175736564206F6E65206F72206D6F69
:104380007265204275734661756C7473000000009D
:104390004120627573206661756C74206F6363756C
:1043A0007272656420647572696E6720666C6F61F5
:1043B00074696E672D706F696E74206C617A7920F4
:1043C0007374617465207072657365727661746967
:1043D0006F6E00005468652070726F636573736F51
:1043E000722068617320617474656D7074656420F7
:1043F000746F206578656375746520616E20696EE1
:10440000737472756374696F6E2074686174206D63
:10441000616B657320696C6C6567616C2075736591
:10442000206F6620746865204550535200000000DC
:104430005468652070726F636573736F7220686172
:104440007320617474656D7074656420616E206999
:104450006C6C6567616C206C6F6164206F662045D1
:1044600058435F52455455524E20746F207468650E
:104470002050432C206173206120726573756C7429
:10448000206F6620616E20696E76616C69642063BE
:104490006F6E746578742C206F7220616E20696E67
:1044A00076616C6964204558435F52455455524EBD
:1044B0002076616C756500005468652070726F63CA
:1044C0006573736F722068617320617474656D70B9
:1044D00074656420746F2061636365737320612069
:1044E000636F70726F636573736F720054686520D9
:1044F00070726F636573736F7220686173206D6192
:10450000646520616E20756E616C69676E656420FC
:104510006D656D6F72792061636365737300000070
:104520005468652070726F636573736F7220686181
:104530007320657865637574656420616E205344EB
:104540004956206F72205544495620696E73747223
:10455000756374696F6E207769746820612064697F
:104560007669736F72206F66203000006861726434
:104570006661756C7400000098400000D84000002F
:10458000000000003441000080410000CC410000E8
:10459000000000000000000018420000304200004F
:1045A0009C420000084300004C4300009043000080
:1045B000000000000000000098400000D44300000C
:1045C00030440000B844000000000000000000007B
:1045D0000000000000000000EC4400002045000046
:1045E0003031323334353637383941424344454629
:1045F000636C6F636B000000434C4F434B00000043
:10460000505253005541525400000000554152543D
:104610004500000000000000844600000200000089
:10462000644600000C00000000000000604600002E
:1046300002000000504600000D00000000000000D5
:104640008046000002000000704600000F000000DD
:1046500048616C6C6F2056657264656E21000000C5
:104660004E4F000048656C6C6F20576F726C642170
:10467000576974616A20C59A776965636965210025
:10468000504C0000656E0000540000000001020361
:1046900004050607080900000406050408030409C8
:1046A00002050704050803050902030504030902BE
:1046B000000001010102020403020A0002010202D9
:1046C000090200202020202020202020282828281F
:1046D00028202020202020202020202020202020D2
:1046E0002020208810101010101010101010101022
:1046F0001010100404040404040404040410101032
:1047000010101010414141414141010101010101DD
:10471000010101010101010101010101010110106B
:1047200010101010424242424242020202020202B1
:10473000020202020202020202020202020210103D
:104740001010200000000000000000000000000029
:104750000000000000000000000000000000000059
:104760000000000000000000000000000000000049
:104770000000000000000000000000000000000039
:104780000000000000000000000000000000000029
:104790000000000000000000000000000000000019
:1047A0000000000000000000000000000000000009
:1047B00000000000000000000000000000000000F9
:1047C000000000430000000028000020000000005E
:1047D000F845000000000000004600000000000056
:1047E00004460000000000000C460000000000002D
:1047F000583E000000000303F045000000000000E8
:084800006C45000000000303F9
:10480800243E000000000000303E0000140000209C
:1048180060060020580600206006002018050020C9
:044828001800000074
:08482C0030BAFF7F010000001B
:1048340000000000002000400000000000200040B4
:104844000000000000000000FF0000000090D00302
:1048540001000000C246000000000000000000004B
:104864000000000000000000000000000000000044
:104874000000000000000000C3470000000000002A
:104884000000000000000000000000000000000024
:104894000000000000000000000000000000000014
:1048A4000000000000000000000000000000000004
:1048B40000000000000000002502000001020000CA
:0448C40000000000F0
:04000003000002D126
:00000001FF
